{
  "abi": [
    {
      "inputs": [
        {
          "internalType": "uint256",
          "name": "_amountToken1",
          "type": "uint256"
        },
        {
          "internalType": "uint256",
          "name": "_amountToken2",
          "type": "uint256"
        }
      ],
      "name": "faucet",
      "outputs": [],
      "stateMutability": "nonpayable",
      "type": "function"
    },
    {
      "inputs": [
        {
          "internalType": "uint256",
          "name": "_amountToken2",
          "type": "uint256"
        }
      ],
      "name": "getEquivalentToken1Estimate",
      "outputs": [
        {
          "internalType": "uint256",
          "name": "reqToken1",
          "type": "uint256"
        }
      ],
      "stateMutability": "view",
      "type": "function"
    },
    {
      "inputs": [
        {
          "internalType": "uint256",
          "name": "_amountToken1",
          "type": "uint256"
        }
      ],
      "name": "getEquivalentToken2Estimate",
      "outputs": [
        {
          "internalType": "uint256",
          "name": "reqToken2",
          "type": "uint256"
        }
      ],
      "stateMutability": "view",
      "type": "function"
    },
    {
      "inputs": [],
      "name": "getMyHoldings",
      "outputs": [
        {
          "internalType": "uint256",
          "name": "amountToken1",
          "type": "uint256"
        },
        {
          "internalType": "uint256",
          "name": "amountToken2",
          "type": "uint256"
        },
        {
          "internalType": "uint256",
          "name": "myShare",
          "type": "uint256"
        }
      ],
      "stateMutability": "view",
      "type": "function"
    },
    {
      "inputs": [],
      "name": "getPoolDetails",
      "outputs": [
        {
          "internalType": "uint256",
          "name": "",
          "type": "uint256"
        },
        {
          "internalType": "uint256",
          "name": "",
          "type": "uint256"
        },
        {
          "internalType": "uint256",
          "name": "",
          "type": "uint256"
        }
      ],
      "stateMutability": "view",
      "type": "function"
    },
    {
      "inputs": [
        {
          "internalType": "uint256",
          "name": "_amountToken1",
          "type": "uint256"
        }
      ],
      "name": "getSwapToken1Estimate",
      "outputs": [
        {
          "internalType": "uint256",
          "name": "amountToken2",
          "type": "uint256"
        }
      ],
      "stateMutability": "view",
      "type": "function"
    },
    {
      "inputs": [
        {
          "internalType": "uint256",
          "name": "_amountToken2",
          "type": "uint256"
        }
      ],
      "name": "getSwapToken1EstimateGivenToken2",
      "outputs": [
        {
          "internalType": "uint256",
          "name": "amountToken1",
          "type": "uint256"
        }
      ],
      "stateMutability": "view",
      "type": "function"
    },
    {
      "inputs": [
        {
          "internalType": "uint256",
          "name": "_amountToken2",
          "type": "uint256"
        }
      ],
      "name": "getSwapToken2Estimate",
      "outputs": [
        {
          "internalType": "uint256",
          "name": "amountToken1",
          "type": "uint256"
        }
      ],
      "stateMutability": "view",
      "type": "function"
    },
    {
      "inputs": [
        {
          "internalType": "uint256",
          "name": "_amountToken1",
          "type": "uint256"
        }
      ],
      "name": "getSwapToken2EstimateGivenToken1",
      "outputs": [
        {
          "internalType": "uint256",
          "name": "amountToken2",
          "type": "uint256"
        }
      ],
      "stateMutability": "view",
      "type": "function"
    },
    {
      "inputs": [
        {
          "internalType": "uint256",
          "name": "_share",
          "type": "uint256"
        }
      ],
      "name": "getWithdrawEstimate",
      "outputs": [
        {
          "internalType": "uint256",
          "name": "amountToken1",
          "type": "uint256"
        },
        {
          "internalType": "uint256",
          "name": "amountToken2",
          "type": "uint256"
        }
      ],
      "stateMutability": "view",
      "type": "function"
    },
    {
      "inputs": [
        {
          "internalType": "uint256",
          "name": "_amountToken1",
          "type": "uint256"
        },
        {
          "internalType": "uint256",
          "name": "_amountToken2",
          "type": "uint256"
        }
      ],
      "name": "provide",
      "outputs": [
        {
          "internalType": "uint256",
          "name": "share",
          "type": "uint256"
        }
      ],
      "stateMutability": "nonpayable",
      "type": "function"
    },
    {
      "inputs": [
        {
          "internalType": "uint256",
          "name": "_amountToken1",
          "type": "uint256"
        }
      ],
      "name": "swapToken1",
      "outputs": [
        {
          "internalType": "uint256",
          "name": "amountToken2",
          "type": "uint256"
        }
      ],
      "stateMutability": "nonpayable",
      "type": "function"
    },
    {
      "inputs": [
        {
          "internalType": "uint256",
          "name": "_amountToken2",
          "type": "uint256"
        }
      ],
      "name": "swapToken2",
      "outputs": [
        {
          "internalType": "uint256",
          "name": "amountToken1",
          "type": "uint256"
        }
      ],
      "stateMutability": "nonpayable",
      "type": "function"
    },
    {
      "inputs": [
        {
          "internalType": "uint256",
          "name": "_share",
          "type": "uint256"
        }
      ],
      "name": "withdraw",
      "outputs": [
        {
          "internalType": "uint256",
          "name": "amountToken1",
          "type": "uint256"
        },
        {
          "internalType": "uint256",
          "name": "amountToken2",
          "type": "uint256"
        }
      ],
      "stateMutability": "nonpayable",
      "type": "function"
    }
  ],
  "bytecode": "608060405234801561001057600080fd5b50610e07806100206000396000f3fe608060405234801561001057600080fd5b50600436106100ea5760003560e01c8063aca34c111161008c578063d3817b4a11610066578063d3817b4a146101fc578063e8c3c54f1461020f578063f4cb34d414610222578063f98137981461023557600080fd5b8063aca34c11146101c8578063b3244041146101d6578063d212b440146101e957600080fd5b8063450177c6116100c8578063450177c6146101505780637565a92b1461016357806391e0dbb814610176578063980d69d3146101b557600080fd5b8063078b7fdc146100ef5780632e1a7d4d14610115578063319bb38f1461013d575b600080fd5b6101026100fd366004610c74565b61024a565b6040519081526020015b60405180910390f35b610128610123366004610c74565b61029d565b6040805192835260208301919091520161010c565b61010261014b366004610c74565b6103f2565b61010261015e366004610c74565b610430565b610102610171366004610c74565b6104ad565b33600090815260056020908152604080832054600683528184205460049093529220545b6040805193845260208401929092529082015260600161010c565b6101026101c3366004610c74565b610565565b60015460025460005461019a565b6101286101e4366004610c74565b61066a565b6101026101f7366004610c74565b61072b565b61010261020a366004610c74565b6107db565b61010261021d366004610c8d565b61084d565b610102610230366004610c74565b610af1565b610248610243366004610c8d565b610be9565b005b600080600054116102765760405162461bcd60e51b815260040161026d90610caf565b60405180910390fd5b61029760025461029184600154610c3d90919063ffffffff16565b90610c50565b92915050565b60008060008054116102c15760405162461bcd60e51b815260040161026d90610caf565b600483600081116102e45760405162461bcd60e51b815260040161026d90610cd7565b336000908152602083905260409020548111156103135760405162461bcd60e51b815260040161026d90610d07565b61031c8561066a565b33600090815260046020526040812080549397509195508792610340908490610d4a565b92505081905550846000808282546103589190610d4a565b9250508190555083600160008282546103719190610d4a565b92505081905550826002600082825461038a9190610d4a565b909155505060025460015461039e91610c3d565b60035533600090815260056020526040812080548692906103c0908490610d61565b909155505033600090815260066020526040812080548592906103e4908490610d61565b925050819055505050915091565b600080600054116104155760405162461bcd60e51b815260040161026d90610caf565b61029760015461029184600254610c3d90919063ffffffff16565b600080600054116104535760405162461bcd60e51b815260040161026d90610caf565b6001546000906104639084610c5c565b9050600061047c82600354610c5090919063ffffffff16565b60025490915061048c9082610c68565b92506002548314156104a657826104a281610d79565b9350505b5050919050565b600080600054116104d05760405162461bcd60e51b815260040161026d90610caf565b600154821061051d5760405162461bcd60e51b8152602060048201526019602482015278496e73756666696369656e7420706f6f6c2062616c616e636560381b604482015260640161026d565b60015460009061052d9084610c68565b9050600061054682600354610c5090919063ffffffff16565b905061055d60025482610c6890919063ffffffff16565b949350505050565b600080600054116105885760405162461bcd60e51b815260040161026d90610caf565b600682600081116105ab5760405162461bcd60e51b815260040161026d90610cd7565b336000908152602083905260409020548111156105da5760405162461bcd60e51b815260040161026d90610d07565b6105e3846107db565b33600090815260066020526040812080549295508692909190610607908490610d4a565b9250508190555083600260008282546106209190610d61565b9250508190555082600160008282546106399190610d4a565b9091555050336000908152600560205260408120805485929061065d908490610d61565b9091555092949350505050565b600080600080541161068e5760405162461bcd60e51b815260040161026d90610caf565b6000548311156106ec5760405162461bcd60e51b8152602060048201526024808201527f53686172652073686f756c64206265206c657373207468616e20746f74616c536044820152636861726560e01b606482015260840161026d565b61070760005461029160015486610c3d90919063ffffffff16565b915061072460005461029160025486610c3d90919063ffffffff16565b9050915091565b6000806000541161074e5760405162461bcd60e51b815260040161026d90610caf565b600254821061079b5760405162461bcd60e51b8152602060048201526019602482015278496e73756666696369656e7420706f6f6c2062616c616e636560381b604482015260640161026d565b6002546000906107ab9084610c68565b905060006107c482600354610c5090919063ffffffff16565b905061055d60015482610c6890919063ffffffff16565b600080600054116107fe5760405162461bcd60e51b815260040161026d90610caf565b60025460009061080e9084610c5c565b9050600061082782600354610c5090919063ffffffff16565b6001549091506108379082610c68565b92506001548314156104a657826104a281610d79565b6000600583600081116108725760405162461bcd60e51b815260040161026d90610cd7565b336000908152602083905260409020548111156108a15760405162461bcd60e51b815260040161026d90610d07565b600684600081116108c45760405162461bcd60e51b815260040161026d90610cd7565b336000908152602083905260409020548111156108f35760405162461bcd60e51b815260040161026d90610d07565b60005461090f57610908620f42406064610d90565b94506109b3565b600061092c6001546102918a600054610c3d90919063ffffffff16565b9050600061094b6002546102918a600054610c3d90919063ffffffff16565b90508082146109af5760405162461bcd60e51b815260206004820152602a60248201527f4571756976616c656e742076616c7565206f6620746f6b656e73206e6f7420706044820152693937bb34b232b217171760b11b606482015260840161026d565b5094505b60008511610a1d5760405162461bcd60e51b815260206004820152603160248201527f41737365742076616c7565206c657373207468616e207468726573686f6c6420604482015270666f7220636f6e747269627574696f6e2160781b606482015260840161026d565b3360009081526005602052604081208054899290610a3c908490610d4a565b90915550503360009081526006602052604081208054889290610a60908490610d4a565b925050819055508660016000828254610a799190610d61565b925050819055508560026000828254610a929190610d61565b9091555050600254600154610aa691610c3d565b60038190555084600080828254610abd9190610d61565b90915550503360009081526004602052604081208054879290610ae1908490610d61565b9091555094979650505050505050565b60008060005411610b145760405162461bcd60e51b815260040161026d90610caf565b60058260008111610b375760405162461bcd60e51b815260040161026d90610cd7565b33600090815260208390526040902054811115610b665760405162461bcd60e51b815260040161026d90610d07565b610b6f84610430565b33600090815260056020526040812080549295508692909190610b93908490610d4a565b925050819055508360016000828254610bac9190610d61565b925050819055508260026000828254610bc59190610d4a565b9091555050336000908152600660205260408120805485929061065d908490610d61565b33600090815260056020526040902054610c039083610c5c565b33600090815260056020908152604080832093909355600690522054610c299082610c5c565b336000908152600660205260409020555050565b6000610c498284610d90565b9392505050565b6000610c498284610daf565b6000610c498284610d61565b6000610c498284610d4a565b600060208284031215610c8657600080fd5b5035919050565b60008060408385031215610ca057600080fd5b50508035926020909101359150565b6020808252600e908201526d5a65726f204c697175696469747960901b604082015260600190565b602080825260169082015275416d6f756e742063616e6e6f74206265207a65726f2160501b604082015260600190565b602080825260139082015272125b9cdd59999a58da595b9d08185b5bdd5b9d606a1b604082015260600190565b634e487b7160e01b600052601160045260246000fd5b600082821015610d5c57610d5c610d34565b500390565b60008219821115610d7457610d74610d34565b500190565b600081610d8857610d88610d34565b506000190190565b6000816000190483118215151615610daa57610daa610d34565b500290565b600082610dcc57634e487b7160e01b600052601260045260246000fd5b50049056fea26469706673582212202b798500e41bf6c1c34077d5558f12e682dd9320c038bf9f49a39ce7be28c2ed64736f6c634300080b0033",
  "bytecodeSha1": "d8b6e9396221a791b3a90f2ebcd80afc096ff0db",
  "compiler": {
    "evm_version": "istanbul",
    "optimizer": {
      "enabled": true,
      "runs": 200
    },
    "version": "0.8.11+commit.d7f03943"
  },
  "contractName": "AMM",
  "language": "Solidity",
  "natspec": {
    "kind": "dev",
    "methods": {},
    "version": 1
  },
  "opcodes": "PUSH1 0x80 PUSH1 0x40 MSTORE CALLVALUE DUP1 ISZERO PUSH2 0x10 JUMPI PUSH1 0x0 DUP1 REVERT JUMPDEST POP PUSH1 0x4 CALLDATASIZE LT PUSH2 0xEA JUMPI PUSH1 0x0 CALLDATALOAD PUSH1 0xE0 SHR DUP1 PUSH4 0xACA34C11 GT PUSH2 0x8C JUMPI DUP1 PUSH4 0xD3817B4A GT PUSH2 0x66 JUMPI DUP1 PUSH4 0xD3817B4A EQ PUSH2 0x1FC JUMPI DUP1 PUSH4 0xE8C3C54F EQ PUSH2 0x20F JUMPI DUP1 PUSH4 0xF4CB34D4 EQ PUSH2 0x222 JUMPI DUP1 PUSH4 0xF9813798 EQ PUSH2 0x235 JUMPI PUSH1 0x0 DUP1 REVERT JUMPDEST DUP1 PUSH4 0xACA34C11 EQ PUSH2 0x1C8 JUMPI DUP1 PUSH4 0xB3244041 EQ PUSH2 0x1D6 JUMPI DUP1 PUSH4 0xD212B440 EQ PUSH2 0x1E9 JUMPI PUSH1 0x0 DUP1 REVERT JUMPDEST DUP1 PUSH4 0x450177C6 GT PUSH2 0xC8 JUMPI DUP1 PUSH4 0x450177C6 EQ PUSH2 0x150 JUMPI DUP1 PUSH4 0x7565A92B EQ PUSH2 0x163 JUMPI DUP1 PUSH4 0x91E0DBB8 EQ PUSH2 0x176 JUMPI DUP1 PUSH4 0x980D69D3 EQ PUSH2 0x1B5 JUMPI PUSH1 0x0 DUP1 REVERT JUMPDEST DUP1 PUSH4 0x78B7FDC EQ PUSH2 0xEF JUMPI DUP1 PUSH4 0x2E1A7D4D EQ PUSH2 0x115 JUMPI DUP1 PUSH4 0x319BB38F EQ PUSH2 0x13D JUMPI JUMPDEST PUSH1 0x0 DUP1 REVERT JUMPDEST PUSH2 0x102 PUSH2 0xFD CALLDATASIZE PUSH1 0x4 PUSH2 0xC74 JUMP JUMPDEST PUSH2 0x24A JUMP JUMPDEST PUSH1 0x40 MLOAD SWAP1 DUP2 MSTORE PUSH1 0x20 ADD JUMPDEST PUSH1 0x40 MLOAD DUP1 SWAP2 SUB SWAP1 RETURN JUMPDEST PUSH2 0x128 PUSH2 0x123 CALLDATASIZE PUSH1 0x4 PUSH2 0xC74 JUMP JUMPDEST PUSH2 0x29D JUMP JUMPDEST PUSH1 0x40 DUP1 MLOAD SWAP3 DUP4 MSTORE PUSH1 0x20 DUP4 ADD SWAP2 SWAP1 SWAP2 MSTORE ADD PUSH2 0x10C JUMP JUMPDEST PUSH2 0x102 PUSH2 0x14B CALLDATASIZE PUSH1 0x4 PUSH2 0xC74 JUMP JUMPDEST PUSH2 0x3F2 JUMP JUMPDEST PUSH2 0x102 PUSH2 0x15E CALLDATASIZE PUSH1 0x4 PUSH2 0xC74 JUMP JUMPDEST PUSH2 0x430 JUMP JUMPDEST PUSH2 0x102 PUSH2 0x171 CALLDATASIZE PUSH1 0x4 PUSH2 0xC74 JUMP JUMPDEST PUSH2 0x4AD JUMP JUMPDEST CALLER PUSH1 0x0 SWAP1 DUP2 MSTORE PUSH1 0x5 PUSH1 0x20 SWAP1 DUP2 MSTORE PUSH1 0x40 DUP1 DUP4 KECCAK256 SLOAD PUSH1 0x6 DUP4 MSTORE DUP2 DUP5 KECCAK256 SLOAD PUSH1 0x4 SWAP1 SWAP4 MSTORE SWAP3 KECCAK256 SLOAD JUMPDEST PUSH1 0x40 DUP1 MLOAD SWAP4 DUP5 MSTORE PUSH1 0x20 DUP5 ADD SWAP3 SWAP1 SWAP3 MSTORE SWAP1 DUP3 ADD MSTORE PUSH1 0x60 ADD PUSH2 0x10C JUMP JUMPDEST PUSH2 0x102 PUSH2 0x1C3 CALLDATASIZE PUSH1 0x4 PUSH2 0xC74 JUMP JUMPDEST PUSH2 0x565 JUMP JUMPDEST PUSH1 0x1 SLOAD PUSH1 0x2 SLOAD PUSH1 0x0 SLOAD PUSH2 0x19A JUMP JUMPDEST PUSH2 0x128 PUSH2 0x1E4 CALLDATASIZE PUSH1 0x4 PUSH2 0xC74 JUMP JUMPDEST PUSH2 0x66A JUMP JUMPDEST PUSH2 0x102 PUSH2 0x1F7 CALLDATASIZE PUSH1 0x4 PUSH2 0xC74 JUMP JUMPDEST PUSH2 0x72B JUMP JUMPDEST PUSH2 0x102 PUSH2 0x20A CALLDATASIZE PUSH1 0x4 PUSH2 0xC74 JUMP JUMPDEST PUSH2 0x7DB JUMP JUMPDEST PUSH2 0x102 PUSH2 0x21D CALLDATASIZE PUSH1 0x4 PUSH2 0xC8D JUMP JUMPDEST PUSH2 0x84D JUMP JUMPDEST PUSH2 0x102 PUSH2 0x230 CALLDATASIZE PUSH1 0x4 PUSH2 0xC74 JUMP JUMPDEST PUSH2 0xAF1 JUMP JUMPDEST PUSH2 0x248 PUSH2 0x243 CALLDATASIZE PUSH1 0x4 PUSH2 0xC8D JUMP JUMPDEST PUSH2 0xBE9 JUMP JUMPDEST STOP JUMPDEST PUSH1 0x0 DUP1 PUSH1 0x0 SLOAD GT PUSH2 0x276 JUMPI PUSH1 0x40 MLOAD PUSH3 0x461BCD PUSH1 0xE5 SHL DUP2 MSTORE PUSH1 0x4 ADD PUSH2 0x26D SWAP1 PUSH2 0xCAF JUMP JUMPDEST PUSH1 0x40 MLOAD DUP1 SWAP2 SUB SWAP1 REVERT JUMPDEST PUSH2 0x297 PUSH1 0x2 SLOAD PUSH2 0x291 DUP5 PUSH1 0x1 SLOAD PUSH2 0xC3D SWAP1 SWAP2 SWAP1 PUSH4 0xFFFFFFFF AND JUMP JUMPDEST SWAP1 PUSH2 0xC50 JUMP JUMPDEST SWAP3 SWAP2 POP POP JUMP JUMPDEST PUSH1 0x0 DUP1 PUSH1 0x0 DUP1 SLOAD GT PUSH2 0x2C1 JUMPI PUSH1 0x40 MLOAD PUSH3 0x461BCD PUSH1 0xE5 SHL DUP2 MSTORE PUSH1 0x4 ADD PUSH2 0x26D SWAP1 PUSH2 0xCAF JUMP JUMPDEST PUSH1 0x4 DUP4 PUSH1 0x0 DUP2 GT PUSH2 0x2E4 JUMPI PUSH1 0x40 MLOAD PUSH3 0x461BCD PUSH1 0xE5 SHL DUP2 MSTORE PUSH1 0x4 ADD PUSH2 0x26D SWAP1 PUSH2 0xCD7 JUMP JUMPDEST CALLER PUSH1 0x0 SWAP1 DUP2 MSTORE PUSH1 0x20 DUP4 SWAP1 MSTORE PUSH1 0x40 SWAP1 KECCAK256 SLOAD DUP2 GT ISZERO PUSH2 0x313 JUMPI PUSH1 0x40 MLOAD PUSH3 0x461BCD PUSH1 0xE5 SHL DUP2 MSTORE PUSH1 0x4 ADD PUSH2 0x26D SWAP1 PUSH2 0xD07 JUMP JUMPDEST PUSH2 0x31C DUP6 PUSH2 0x66A JUMP JUMPDEST CALLER PUSH1 0x0 SWAP1 DUP2 MSTORE PUSH1 0x4 PUSH1 0x20 MSTORE PUSH1 0x40 DUP2 KECCAK256 DUP1 SLOAD SWAP4 SWAP8 POP SWAP2 SWAP6 POP DUP8 SWAP3 PUSH2 0x340 SWAP1 DUP5 SWAP1 PUSH2 0xD4A JUMP JUMPDEST SWAP3 POP POP DUP2 SWAP1 SSTORE POP DUP5 PUSH1 0x0 DUP1 DUP3 DUP3 SLOAD PUSH2 0x358 SWAP2 SWAP1 PUSH2 0xD4A JUMP JUMPDEST SWAP3 POP POP DUP2 SWAP1 SSTORE POP DUP4 PUSH1 0x1 PUSH1 0x0 DUP3 DUP3 SLOAD PUSH2 0x371 SWAP2 SWAP1 PUSH2 0xD4A JUMP JUMPDEST SWAP3 POP POP DUP2 SWAP1 SSTORE POP DUP3 PUSH1 0x2 PUSH1 0x0 DUP3 DUP3 SLOAD PUSH2 0x38A SWAP2 SWAP1 PUSH2 0xD4A JUMP JUMPDEST SWAP1 SWAP2 SSTORE POP POP PUSH1 0x2 SLOAD PUSH1 0x1 SLOAD PUSH2 0x39E SWAP2 PUSH2 0xC3D JUMP JUMPDEST PUSH1 0x3 SSTORE CALLER PUSH1 0x0 SWAP1 DUP2 MSTORE PUSH1 0x5 PUSH1 0x20 MSTORE PUSH1 0x40 DUP2 KECCAK256 DUP1 SLOAD DUP7 SWAP3 SWAP1 PUSH2 0x3C0 SWAP1 DUP5 SWAP1 PUSH2 0xD61 JUMP JUMPDEST SWAP1 SWAP2 SSTORE POP POP CALLER PUSH1 0x0 SWAP1 DUP2 MSTORE PUSH1 0x6 PUSH1 0x20 MSTORE PUSH1 0x40 DUP2 KECCAK256 DUP1 SLOAD DUP6 SWAP3 SWAP1 PUSH2 0x3E4 SWAP1 DUP5 SWAP1 PUSH2 0xD61 JUMP JUMPDEST SWAP3 POP POP DUP2 SWAP1 SSTORE POP POP POP SWAP2 POP SWAP2 JUMP JUMPDEST PUSH1 0x0 DUP1 PUSH1 0x0 SLOAD GT PUSH2 0x415 JUMPI PUSH1 0x40 MLOAD PUSH3 0x461BCD PUSH1 0xE5 SHL DUP2 MSTORE PUSH1 0x4 ADD PUSH2 0x26D SWAP1 PUSH2 0xCAF JUMP JUMPDEST PUSH2 0x297 PUSH1 0x1 SLOAD PUSH2 0x291 DUP5 PUSH1 0x2 SLOAD PUSH2 0xC3D SWAP1 SWAP2 SWAP1 PUSH4 0xFFFFFFFF AND JUMP JUMPDEST PUSH1 0x0 DUP1 PUSH1 0x0 SLOAD GT PUSH2 0x453 JUMPI PUSH1 0x40 MLOAD PUSH3 0x461BCD PUSH1 0xE5 SHL DUP2 MSTORE PUSH1 0x4 ADD PUSH2 0x26D SWAP1 PUSH2 0xCAF JUMP JUMPDEST PUSH1 0x1 SLOAD PUSH1 0x0 SWAP1 PUSH2 0x463 SWAP1 DUP5 PUSH2 0xC5C JUMP JUMPDEST SWAP1 POP PUSH1 0x0 PUSH2 0x47C DUP3 PUSH1 0x3 SLOAD PUSH2 0xC50 SWAP1 SWAP2 SWAP1 PUSH4 0xFFFFFFFF AND JUMP JUMPDEST PUSH1 0x2 SLOAD SWAP1 SWAP2 POP PUSH2 0x48C SWAP1 DUP3 PUSH2 0xC68 JUMP JUMPDEST SWAP3 POP PUSH1 0x2 SLOAD DUP4 EQ ISZERO PUSH2 0x4A6 JUMPI DUP3 PUSH2 0x4A2 DUP2 PUSH2 0xD79 JUMP JUMPDEST SWAP4 POP POP JUMPDEST POP POP SWAP2 SWAP1 POP JUMP JUMPDEST PUSH1 0x0 DUP1 PUSH1 0x0 SLOAD GT PUSH2 0x4D0 JUMPI PUSH1 0x40 MLOAD PUSH3 0x461BCD PUSH1 0xE5 SHL DUP2 MSTORE PUSH1 0x4 ADD PUSH2 0x26D SWAP1 PUSH2 0xCAF JUMP JUMPDEST PUSH1 0x1 SLOAD DUP3 LT PUSH2 0x51D JUMPI PUSH1 0x40 MLOAD PUSH3 0x461BCD PUSH1 0xE5 SHL DUP2 MSTORE PUSH1 0x20 PUSH1 0x4 DUP3 ADD MSTORE PUSH1 0x19 PUSH1 0x24 DUP3 ADD MSTORE PUSH25 0x496E73756666696369656E7420706F6F6C2062616C616E6365 PUSH1 0x38 SHL PUSH1 0x44 DUP3 ADD MSTORE PUSH1 0x64 ADD PUSH2 0x26D JUMP JUMPDEST PUSH1 0x1 SLOAD PUSH1 0x0 SWAP1 PUSH2 0x52D SWAP1 DUP5 PUSH2 0xC68 JUMP JUMPDEST SWAP1 POP PUSH1 0x0 PUSH2 0x546 DUP3 PUSH1 0x3 SLOAD PUSH2 0xC50 SWAP1 SWAP2 SWAP1 PUSH4 0xFFFFFFFF AND JUMP JUMPDEST SWAP1 POP PUSH2 0x55D PUSH1 0x2 SLOAD DUP3 PUSH2 0xC68 SWAP1 SWAP2 SWAP1 PUSH4 0xFFFFFFFF AND JUMP JUMPDEST SWAP5 SWAP4 POP POP POP POP JUMP JUMPDEST PUSH1 0x0 DUP1 PUSH1 0x0 SLOAD GT PUSH2 0x588 JUMPI PUSH1 0x40 MLOAD PUSH3 0x461BCD PUSH1 0xE5 SHL DUP2 MSTORE PUSH1 0x4 ADD PUSH2 0x26D SWAP1 PUSH2 0xCAF JUMP JUMPDEST PUSH1 0x6 DUP3 PUSH1 0x0 DUP2 GT PUSH2 0x5AB JUMPI PUSH1 0x40 MLOAD PUSH3 0x461BCD PUSH1 0xE5 SHL DUP2 MSTORE PUSH1 0x4 ADD PUSH2 0x26D SWAP1 PUSH2 0xCD7 JUMP JUMPDEST CALLER PUSH1 0x0 SWAP1 DUP2 MSTORE PUSH1 0x20 DUP4 SWAP1 MSTORE PUSH1 0x40 SWAP1 KECCAK256 SLOAD DUP2 GT ISZERO PUSH2 0x5DA JUMPI PUSH1 0x40 MLOAD PUSH3 0x461BCD PUSH1 0xE5 SHL DUP2 MSTORE PUSH1 0x4 ADD PUSH2 0x26D SWAP1 PUSH2 0xD07 JUMP JUMPDEST PUSH2 0x5E3 DUP5 PUSH2 0x7DB JUMP JUMPDEST CALLER PUSH1 0x0 SWAP1 DUP2 MSTORE PUSH1 0x6 PUSH1 0x20 MSTORE PUSH1 0x40 DUP2 KECCAK256 DUP1 SLOAD SWAP3 SWAP6 POP DUP7 SWAP3 SWAP1 SWAP2 SWAP1 PUSH2 0x607 SWAP1 DUP5 SWAP1 PUSH2 0xD4A JUMP JUMPDEST SWAP3 POP POP DUP2 SWAP1 SSTORE POP DUP4 PUSH1 0x2 PUSH1 0x0 DUP3 DUP3 SLOAD PUSH2 0x620 SWAP2 SWAP1 PUSH2 0xD61 JUMP JUMPDEST SWAP3 POP POP DUP2 SWAP1 SSTORE POP DUP3 PUSH1 0x1 PUSH1 0x0 DUP3 DUP3 SLOAD PUSH2 0x639 SWAP2 SWAP1 PUSH2 0xD4A JUMP JUMPDEST SWAP1 SWAP2 SSTORE POP POP CALLER PUSH1 0x0 SWAP1 DUP2 MSTORE PUSH1 0x5 PUSH1 0x20 MSTORE PUSH1 0x40 DUP2 KECCAK256 DUP1 SLOAD DUP6 SWAP3 SWAP1 PUSH2 0x65D SWAP1 DUP5 SWAP1 PUSH2 0xD61 JUMP JUMPDEST SWAP1 SWAP2 SSTORE POP SWAP3 SWAP5 SWAP4 POP POP POP POP JUMP JUMPDEST PUSH1 0x0 DUP1 PUSH1 0x0 DUP1 SLOAD GT PUSH2 0x68E JUMPI PUSH1 0x40 MLOAD PUSH3 0x461BCD PUSH1 0xE5 SHL DUP2 MSTORE PUSH1 0x4 ADD PUSH2 0x26D SWAP1 PUSH2 0xCAF JUMP JUMPDEST PUSH1 0x0 SLOAD DUP4 GT ISZERO PUSH2 0x6EC JUMPI PUSH1 0x40 MLOAD PUSH3 0x461BCD PUSH1 0xE5 SHL DUP2 MSTORE PUSH1 0x20 PUSH1 0x4 DUP3 ADD MSTORE PUSH1 0x24 DUP1 DUP3 ADD MSTORE PUSH32 0x53686172652073686F756C64206265206C657373207468616E20746F74616C53 PUSH1 0x44 DUP3 ADD MSTORE PUSH4 0x68617265 PUSH1 0xE0 SHL PUSH1 0x64 DUP3 ADD MSTORE PUSH1 0x84 ADD PUSH2 0x26D JUMP JUMPDEST PUSH2 0x707 PUSH1 0x0 SLOAD PUSH2 0x291 PUSH1 0x1 SLOAD DUP7 PUSH2 0xC3D SWAP1 SWAP2 SWAP1 PUSH4 0xFFFFFFFF AND JUMP JUMPDEST SWAP2 POP PUSH2 0x724 PUSH1 0x0 SLOAD PUSH2 0x291 PUSH1 0x2 SLOAD DUP7 PUSH2 0xC3D SWAP1 SWAP2 SWAP1 PUSH4 0xFFFFFFFF AND JUMP JUMPDEST SWAP1 POP SWAP2 POP SWAP2 JUMP JUMPDEST PUSH1 0x0 DUP1 PUSH1 0x0 SLOAD GT PUSH2 0x74E JUMPI PUSH1 0x40 MLOAD PUSH3 0x461BCD PUSH1 0xE5 SHL DUP2 MSTORE PUSH1 0x4 ADD PUSH2 0x26D SWAP1 PUSH2 0xCAF JUMP JUMPDEST PUSH1 0x2 SLOAD DUP3 LT PUSH2 0x79B JUMPI PUSH1 0x40 MLOAD PUSH3 0x461BCD PUSH1 0xE5 SHL DUP2 MSTORE PUSH1 0x20 PUSH1 0x4 DUP3 ADD MSTORE PUSH1 0x19 PUSH1 0x24 DUP3 ADD MSTORE PUSH25 0x496E73756666696369656E7420706F6F6C2062616C616E6365 PUSH1 0x38 SHL PUSH1 0x44 DUP3 ADD MSTORE PUSH1 0x64 ADD PUSH2 0x26D JUMP JUMPDEST PUSH1 0x2 SLOAD PUSH1 0x0 SWAP1 PUSH2 0x7AB SWAP1 DUP5 PUSH2 0xC68 JUMP JUMPDEST SWAP1 POP PUSH1 0x0 PUSH2 0x7C4 DUP3 PUSH1 0x3 SLOAD PUSH2 0xC50 SWAP1 SWAP2 SWAP1 PUSH4 0xFFFFFFFF AND JUMP JUMPDEST SWAP1 POP PUSH2 0x55D PUSH1 0x1 SLOAD DUP3 PUSH2 0xC68 SWAP1 SWAP2 SWAP1 PUSH4 0xFFFFFFFF AND JUMP JUMPDEST PUSH1 0x0 DUP1 PUSH1 0x0 SLOAD GT PUSH2 0x7FE JUMPI PUSH1 0x40 MLOAD PUSH3 0x461BCD PUSH1 0xE5 SHL DUP2 MSTORE PUSH1 0x4 ADD PUSH2 0x26D SWAP1 PUSH2 0xCAF JUMP JUMPDEST PUSH1 0x2 SLOAD PUSH1 0x0 SWAP1 PUSH2 0x80E SWAP1 DUP5 PUSH2 0xC5C JUMP JUMPDEST SWAP1 POP PUSH1 0x0 PUSH2 0x827 DUP3 PUSH1 0x3 SLOAD PUSH2 0xC50 SWAP1 SWAP2 SWAP1 PUSH4 0xFFFFFFFF AND JUMP JUMPDEST PUSH1 0x1 SLOAD SWAP1 SWAP2 POP PUSH2 0x837 SWAP1 DUP3 PUSH2 0xC68 JUMP JUMPDEST SWAP3 POP PUSH1 0x1 SLOAD DUP4 EQ ISZERO PUSH2 0x4A6 JUMPI DUP3 PUSH2 0x4A2 DUP2 PUSH2 0xD79 JUMP JUMPDEST PUSH1 0x0 PUSH1 0x5 DUP4 PUSH1 0x0 DUP2 GT PUSH2 0x872 JUMPI PUSH1 0x40 MLOAD PUSH3 0x461BCD PUSH1 0xE5 SHL DUP2 MSTORE PUSH1 0x4 ADD PUSH2 0x26D SWAP1 PUSH2 0xCD7 JUMP JUMPDEST CALLER PUSH1 0x0 SWAP1 DUP2 MSTORE PUSH1 0x20 DUP4 SWAP1 MSTORE PUSH1 0x40 SWAP1 KECCAK256 SLOAD DUP2 GT ISZERO PUSH2 0x8A1 JUMPI PUSH1 0x40 MLOAD PUSH3 0x461BCD PUSH1 0xE5 SHL DUP2 MSTORE PUSH1 0x4 ADD PUSH2 0x26D SWAP1 PUSH2 0xD07 JUMP JUMPDEST PUSH1 0x6 DUP5 PUSH1 0x0 DUP2 GT PUSH2 0x8C4 JUMPI PUSH1 0x40 MLOAD PUSH3 0x461BCD PUSH1 0xE5 SHL DUP2 MSTORE PUSH1 0x4 ADD PUSH2 0x26D SWAP1 PUSH2 0xCD7 JUMP JUMPDEST CALLER PUSH1 0x0 SWAP1 DUP2 MSTORE PUSH1 0x20 DUP4 SWAP1 MSTORE PUSH1 0x40 SWAP1 KECCAK256 SLOAD DUP2 GT ISZERO PUSH2 0x8F3 JUMPI PUSH1 0x40 MLOAD PUSH3 0x461BCD PUSH1 0xE5 SHL DUP2 MSTORE PUSH1 0x4 ADD PUSH2 0x26D SWAP1 PUSH2 0xD07 JUMP JUMPDEST PUSH1 0x0 SLOAD PUSH2 0x90F JUMPI PUSH2 0x908 PUSH3 0xF4240 PUSH1 0x64 PUSH2 0xD90 JUMP JUMPDEST SWAP5 POP PUSH2 0x9B3 JUMP JUMPDEST PUSH1 0x0 PUSH2 0x92C PUSH1 0x1 SLOAD PUSH2 0x291 DUP11 PUSH1 0x0 SLOAD PUSH2 0xC3D SWAP1 SWAP2 SWAP1 PUSH4 0xFFFFFFFF AND JUMP JUMPDEST SWAP1 POP PUSH1 0x0 PUSH2 0x94B PUSH1 0x2 SLOAD PUSH2 0x291 DUP11 PUSH1 0x0 SLOAD PUSH2 0xC3D SWAP1 SWAP2 SWAP1 PUSH4 0xFFFFFFFF AND JUMP JUMPDEST SWAP1 POP DUP1 DUP3 EQ PUSH2 0x9AF JUMPI PUSH1 0x40 MLOAD PUSH3 0x461BCD PUSH1 0xE5 SHL DUP2 MSTORE PUSH1 0x20 PUSH1 0x4 DUP3 ADD MSTORE PUSH1 0x2A PUSH1 0x24 DUP3 ADD MSTORE PUSH32 0x4571756976616C656E742076616C7565206F6620746F6B656E73206E6F742070 PUSH1 0x44 DUP3 ADD MSTORE PUSH10 0x3937BB34B232B2171717 PUSH1 0xB1 SHL PUSH1 0x64 DUP3 ADD MSTORE PUSH1 0x84 ADD PUSH2 0x26D JUMP JUMPDEST POP SWAP5 POP JUMPDEST PUSH1 0x0 DUP6 GT PUSH2 0xA1D JUMPI PUSH1 0x40 MLOAD PUSH3 0x461BCD PUSH1 0xE5 SHL DUP2 MSTORE PUSH1 0x20 PUSH1 0x4 DUP3 ADD MSTORE PUSH1 0x31 PUSH1 0x24 DUP3 ADD MSTORE PUSH32 0x41737365742076616C7565206C657373207468616E207468726573686F6C6420 PUSH1 0x44 DUP3 ADD MSTORE PUSH17 0x666F7220636F6E747269627574696F6E21 PUSH1 0x78 SHL PUSH1 0x64 DUP3 ADD MSTORE PUSH1 0x84 ADD PUSH2 0x26D JUMP JUMPDEST CALLER PUSH1 0x0 SWAP1 DUP2 MSTORE PUSH1 0x5 PUSH1 0x20 MSTORE PUSH1 0x40 DUP2 KECCAK256 DUP1 SLOAD DUP10 SWAP3 SWAP1 PUSH2 0xA3C SWAP1 DUP5 SWAP1 PUSH2 0xD4A JUMP JUMPDEST SWAP1 SWAP2 SSTORE POP POP CALLER PUSH1 0x0 SWAP1 DUP2 MSTORE PUSH1 0x6 PUSH1 0x20 MSTORE PUSH1 0x40 DUP2 KECCAK256 DUP1 SLOAD DUP9 SWAP3 SWAP1 PUSH2 0xA60 SWAP1 DUP5 SWAP1 PUSH2 0xD4A JUMP JUMPDEST SWAP3 POP POP DUP2 SWAP1 SSTORE POP DUP7 PUSH1 0x1 PUSH1 0x0 DUP3 DUP3 SLOAD PUSH2 0xA79 SWAP2 SWAP1 PUSH2 0xD61 JUMP JUMPDEST SWAP3 POP POP DUP2 SWAP1 SSTORE POP DUP6 PUSH1 0x2 PUSH1 0x0 DUP3 DUP3 SLOAD PUSH2 0xA92 SWAP2 SWAP1 PUSH2 0xD61 JUMP JUMPDEST SWAP1 SWAP2 SSTORE POP POP PUSH1 0x2 SLOAD PUSH1 0x1 SLOAD PUSH2 0xAA6 SWAP2 PUSH2 0xC3D JUMP JUMPDEST PUSH1 0x3 DUP2 SWAP1 SSTORE POP DUP5 PUSH1 0x0 DUP1 DUP3 DUP3 SLOAD PUSH2 0xABD SWAP2 SWAP1 PUSH2 0xD61 JUMP JUMPDEST SWAP1 SWAP2 SSTORE POP POP CALLER PUSH1 0x0 SWAP1 DUP2 MSTORE PUSH1 0x4 PUSH1 0x20 MSTORE PUSH1 0x40 DUP2 KECCAK256 DUP1 SLOAD DUP8 SWAP3 SWAP1 PUSH2 0xAE1 SWAP1 DUP5 SWAP1 PUSH2 0xD61 JUMP JUMPDEST SWAP1 SWAP2 SSTORE POP SWAP5 SWAP8 SWAP7 POP POP POP POP POP POP POP JUMP JUMPDEST PUSH1 0x0 DUP1 PUSH1 0x0 SLOAD GT PUSH2 0xB14 JUMPI PUSH1 0x40 MLOAD PUSH3 0x461BCD PUSH1 0xE5 SHL DUP2 MSTORE PUSH1 0x4 ADD PUSH2 0x26D SWAP1 PUSH2 0xCAF JUMP JUMPDEST PUSH1 0x5 DUP3 PUSH1 0x0 DUP2 GT PUSH2 0xB37 JUMPI PUSH1 0x40 MLOAD PUSH3 0x461BCD PUSH1 0xE5 SHL DUP2 MSTORE PUSH1 0x4 ADD PUSH2 0x26D SWAP1 PUSH2 0xCD7 JUMP JUMPDEST CALLER PUSH1 0x0 SWAP1 DUP2 MSTORE PUSH1 0x20 DUP4 SWAP1 MSTORE PUSH1 0x40 SWAP1 KECCAK256 SLOAD DUP2 GT ISZERO PUSH2 0xB66 JUMPI PUSH1 0x40 MLOAD PUSH3 0x461BCD PUSH1 0xE5 SHL DUP2 MSTORE PUSH1 0x4 ADD PUSH2 0x26D SWAP1 PUSH2 0xD07 JUMP JUMPDEST PUSH2 0xB6F DUP5 PUSH2 0x430 JUMP JUMPDEST CALLER PUSH1 0x0 SWAP1 DUP2 MSTORE PUSH1 0x5 PUSH1 0x20 MSTORE PUSH1 0x40 DUP2 KECCAK256 DUP1 SLOAD SWAP3 SWAP6 POP DUP7 SWAP3 SWAP1 SWAP2 SWAP1 PUSH2 0xB93 SWAP1 DUP5 SWAP1 PUSH2 0xD4A JUMP JUMPDEST SWAP3 POP POP DUP2 SWAP1 SSTORE POP DUP4 PUSH1 0x1 PUSH1 0x0 DUP3 DUP3 SLOAD PUSH2 0xBAC SWAP2 SWAP1 PUSH2 0xD61 JUMP JUMPDEST SWAP3 POP POP DUP2 SWAP1 SSTORE POP DUP3 PUSH1 0x2 PUSH1 0x0 DUP3 DUP3 SLOAD PUSH2 0xBC5 SWAP2 SWAP1 PUSH2 0xD4A JUMP JUMPDEST SWAP1 SWAP2 SSTORE POP POP CALLER PUSH1 0x0 SWAP1 DUP2 MSTORE PUSH1 0x6 PUSH1 0x20 MSTORE PUSH1 0x40 DUP2 KECCAK256 DUP1 SLOAD DUP6 SWAP3 SWAP1 PUSH2 0x65D SWAP1 DUP5 SWAP1 PUSH2 0xD61 JUMP JUMPDEST CALLER PUSH1 0x0 SWAP1 DUP2 MSTORE PUSH1 0x5 PUSH1 0x20 MSTORE PUSH1 0x40 SWAP1 KECCAK256 SLOAD PUSH2 0xC03 SWAP1 DUP4 PUSH2 0xC5C JUMP JUMPDEST CALLER PUSH1 0x0 SWAP1 DUP2 MSTORE PUSH1 0x5 PUSH1 0x20 SWAP1 DUP2 MSTORE PUSH1 0x40 DUP1 DUP4 KECCAK256 SWAP4 SWAP1 SWAP4 SSTORE PUSH1 0x6 SWAP1 MSTORE KECCAK256 SLOAD PUSH2 0xC29 SWAP1 DUP3 PUSH2 0xC5C JUMP JUMPDEST CALLER PUSH1 0x0 SWAP1 DUP2 MSTORE PUSH1 0x6 PUSH1 0x20 MSTORE PUSH1 0x40 SWAP1 KECCAK256 SSTORE POP POP JUMP JUMPDEST PUSH1 0x0 PUSH2 0xC49 DUP3 DUP5 PUSH2 0xD90 JUMP JUMPDEST SWAP4 SWAP3 POP POP POP JUMP JUMPDEST PUSH1 0x0 PUSH2 0xC49 DUP3 DUP5 PUSH2 0xDAF JUMP JUMPDEST PUSH1 0x0 PUSH2 0xC49 DUP3 DUP5 PUSH2 0xD61 JUMP JUMPDEST PUSH1 0x0 PUSH2 0xC49 DUP3 DUP5 PUSH2 0xD4A JUMP JUMPDEST PUSH1 0x0 PUSH1 0x20 DUP3 DUP5 SUB SLT ISZERO PUSH2 0xC86 JUMPI PUSH1 0x0 DUP1 REVERT JUMPDEST POP CALLDATALOAD SWAP2 SWAP1 POP JUMP JUMPDEST PUSH1 0x0 DUP1 PUSH1 0x40 DUP4 DUP6 SUB SLT ISZERO PUSH2 0xCA0 JUMPI PUSH1 0x0 DUP1 REVERT JUMPDEST POP POP DUP1 CALLDATALOAD SWAP3 PUSH1 0x20 SWAP1 SWAP2 ADD CALLDATALOAD SWAP2 POP JUMP JUMPDEST PUSH1 0x20 DUP1 DUP3 MSTORE PUSH1 0xE SWAP1 DUP3 ADD MSTORE PUSH14 0x5A65726F204C6971756964697479 PUSH1 0x90 SHL PUSH1 0x40 DUP3 ADD MSTORE PUSH1 0x60 ADD SWAP1 JUMP JUMPDEST PUSH1 0x20 DUP1 DUP3 MSTORE PUSH1 0x16 SWAP1 DUP3 ADD MSTORE PUSH22 0x416D6F756E742063616E6E6F74206265207A65726F21 PUSH1 0x50 SHL PUSH1 0x40 DUP3 ADD MSTORE PUSH1 0x60 ADD SWAP1 JUMP JUMPDEST PUSH1 0x20 DUP1 DUP3 MSTORE PUSH1 0x13 SWAP1 DUP3 ADD MSTORE PUSH19 0x125B9CDD59999A58DA595B9D08185B5BDD5B9D PUSH1 0x6A SHL PUSH1 0x40 DUP3 ADD MSTORE PUSH1 0x60 ADD SWAP1 JUMP JUMPDEST PUSH4 0x4E487B71 PUSH1 0xE0 SHL PUSH1 0x0 MSTORE PUSH1 0x11 PUSH1 0x4 MSTORE PUSH1 0x24 PUSH1 0x0 REVERT JUMPDEST PUSH1 0x0 DUP3 DUP3 LT ISZERO PUSH2 0xD5C JUMPI PUSH2 0xD5C PUSH2 0xD34 JUMP JUMPDEST POP SUB SWAP1 JUMP JUMPDEST PUSH1 0x0 DUP3 NOT DUP3 GT ISZERO PUSH2 0xD74 JUMPI PUSH2 0xD74 PUSH2 0xD34 JUMP JUMPDEST POP ADD SWAP1 JUMP JUMPDEST PUSH1 0x0 DUP2 PUSH2 0xD88 JUMPI PUSH2 0xD88 PUSH2 0xD34 JUMP JUMPDEST POP PUSH1 0x0 NOT ADD SWAP1 JUMP JUMPDEST PUSH1 0x0 DUP2 PUSH1 0x0 NOT DIV DUP4 GT DUP3 ISZERO ISZERO AND ISZERO PUSH2 0xDAA JUMPI PUSH2 0xDAA PUSH2 0xD34 JUMP JUMPDEST POP MUL SWAP1 JUMP JUMPDEST PUSH1 0x0 DUP3 PUSH2 0xDCC JUMPI PUSH4 0x4E487B71 PUSH1 0xE0 SHL PUSH1 0x0 MSTORE PUSH1 0x12 PUSH1 0x4 MSTORE PUSH1 0x24 PUSH1 0x0 REVERT JUMPDEST POP DIV SWAP1 JUMP INVALID LOG2 PUSH5 0x6970667358 0x22 SLT KECCAK256 0x2B PUSH26 0x8500E41BF6C1C34077D5558F12E682DD9320C038BF9F49A39CE7 0xBE 0x28 0xC2 0xED PUSH5 0x736F6C6343 STOP ADDMOD SIGNEXTEND STOP CALLER ",
  "sha1": "9a7b1ade02b6e620612c320eaa2afd7ef1178d3f",
  "source": "// SPDX-License-Identifier: MIT\npragma solidity >=0.7.0 <0.9.0;\n\nimport \"@openzeppelin/contracts/utils/math/SafeMath.sol\";\n\ncontract AMM {\n    using SafeMath for uint256;\n    uint256 totalShares; // Stores the total amount of share issued for the pool\n    uint256 totalToken1; // Stores the amount of Token1 locked in the pool\n    uint256 totalToken2; // Stores the amount of Token2 locked in the pool\n    uint256 K; // Algorithmic constant used to determine price\n\n    uint256 constant PRECISION = 1_000_000; // Precision of 6 digits\n\n    mapping(address => uint256) shares; // Stores the share holding of each provider\n\n    // Stores the available balance of user outside of the AMM\n    // For simplicity purpose, We are maintaining our own internal\n    // balance mapping instead of dealing with ERC-20 tokens\n    mapping(address => uint256) token1Balance;\n    mapping(address => uint256) token2Balance;\n\n    // Ensures that the _qty is non-zero and the user has enough balance\n    modifier validAmountCheck(\n        mapping(address => uint256) storage _balance,\n        uint256 _qty\n    ) {\n        require(_qty > 0, \"Amount cannot be zero!\");\n        require(_qty <= _balance[msg.sender], \"Insufficient amount\");\n        _;\n    }\n\n    // Restricts withdraw, swap feature till liquidity is added to the pool\n    modifier activePool() {\n        require(totalShares > 0, \"Zero Liquidity\");\n        _;\n    }\n\n    // Sends free token(s) to the invoker\n    function faucet(uint256 _amountToken1, uint256 _amountToken2) external {\n        token1Balance[msg.sender] = token1Balance[msg.sender].add(\n            _amountToken1\n        );\n        token2Balance[msg.sender] = token2Balance[msg.sender].add(\n            _amountToken2\n        );\n    }\n\n    // Returns the balance of the user\n    function getMyHoldings()\n        external\n        view\n        returns (\n            uint256 amountToken1,\n            uint256 amountToken2,\n            uint256 myShare\n        )\n    {\n        amountToken1 = token1Balance[msg.sender];\n        amountToken2 = token2Balance[msg.sender];\n        myShare = shares[msg.sender];\n    }\n\n    // Returns the total amount of tokens locked in the pool and the total shares issued corresponding to it\n    function getPoolDetails()\n        external\n        view\n        returns (\n            uint256,\n            uint256,\n            uint256\n        )\n    {\n        return (totalToken1, totalToken2, totalShares);\n    }\n\n    // Returns amount of Token1 required when providing liquidity with _amountToken2 quantity of Token2\n    function getEquivalentToken1Estimate(uint256 _amountToken2)\n        public\n        view\n        activePool\n        returns (uint256 reqToken1)\n    {\n        reqToken1 = totalToken1.mul(_amountToken2).div(totalToken2);\n    }\n\n    // Returns amount of Token2 required when providing liquidity with _amountToken1 quantity of Token1\n    function getEquivalentToken2Estimate(uint256 _amountToken1)\n        public\n        view\n        activePool\n        returns (uint256 reqToken2)\n    {\n        reqToken2 = totalToken2.mul(_amountToken1).div(totalToken1);\n    }\n\n    // Adding new liquidity in the pool\n    // Returns the amount of share issued for locking given assets\n    function provide(uint256 _amountToken1, uint256 _amountToken2)\n        external\n        validAmountCheck(token1Balance, _amountToken1)\n        validAmountCheck(token2Balance, _amountToken2)\n        returns (uint256 share)\n    {\n        if (totalShares == 0) {\n            // Genesis liquidity is issued 100 Shares\n            share = 100 * PRECISION;\n        } else {\n            uint256 share1 = totalShares.mul(_amountToken1).div(totalToken1);\n            uint256 share2 = totalShares.mul(_amountToken2).div(totalToken2);\n            require(\n                share1 == share2,\n                \"Equivalent value of tokens not provided...\"\n            );\n            share = share1;\n        }\n\n        require(share > 0, \"Asset value less than threshold for contribution!\");\n        token1Balance[msg.sender] -= _amountToken1;\n        token2Balance[msg.sender] -= _amountToken2;\n\n        totalToken1 += _amountToken1;\n        totalToken2 += _amountToken2;\n        K = totalToken1.mul(totalToken2);\n\n        totalShares += share;\n        shares[msg.sender] += share;\n    }\n\n    // Returns the estimate of Token1 & Token2 that will be released on burning given _share\n    function getWithdrawEstimate(uint256 _share)\n        public\n        view\n        activePool\n        returns (uint256 amountToken1, uint256 amountToken2)\n    {\n        require(_share <= totalShares, \"Share should be less than totalShare\");\n        amountToken1 = _share.mul(totalToken1).div(totalShares);\n        amountToken2 = _share.mul(totalToken2).div(totalShares);\n    }\n\n    // Removes liquidity from the pool and releases corresponding Token1 & Token2 to the withdrawer\n    function withdraw(uint256 _share)\n        external\n        activePool\n        validAmountCheck(shares, _share)\n        returns (uint256 amountToken1, uint256 amountToken2)\n    {\n        (amountToken1, amountToken2) = getWithdrawEstimate(_share);\n\n        shares[msg.sender] -= _share;\n        totalShares -= _share;\n\n        totalToken1 -= amountToken1;\n        totalToken2 -= amountToken2;\n        K = totalToken1.mul(totalToken2);\n\n        token1Balance[msg.sender] += amountToken1;\n        token2Balance[msg.sender] += amountToken2;\n    }\n\n    // Returns the amount of Token2 that the user will get when swapping a given amount of Token1 for Token2\n    function getSwapToken1Estimate(uint256 _amountToken1)\n        public\n        view\n        activePool\n        returns (uint256 amountToken2)\n    {\n        uint256 token1After = totalToken1.add(_amountToken1);\n        uint256 token2After = K.div(token1After);\n        amountToken2 = totalToken2.sub(token2After);\n\n        // To ensure that Token2's pool is not completely depleted leading to inf:0 ratio\n        if (amountToken2 == totalToken2) amountToken2--;\n    }\n\n    // Returns the amount of Token1 that the user should swap to get _amountToken2 in return\n    function getSwapToken1EstimateGivenToken2(uint256 _amountToken2)\n        public\n        view\n        activePool\n        returns (uint256 amountToken1)\n    {\n        require(_amountToken2 < totalToken2, \"Insufficient pool balance\");\n        uint256 token2After = totalToken2.sub(_amountToken2);\n        uint256 token1After = K.div(token2After);\n        amountToken1 = token1After.sub(totalToken1);\n    }\n\n    // Swaps given amount of Token1 to Token2 using algorithmic price determination\n    function swapToken1(uint256 _amountToken1)\n        external\n        activePool\n        validAmountCheck(token1Balance, _amountToken1)\n        returns (uint256 amountToken2)\n    {\n        amountToken2 = getSwapToken1Estimate(_amountToken1);\n\n        token1Balance[msg.sender] -= _amountToken1;\n        totalToken1 += _amountToken1;\n        totalToken2 -= amountToken2;\n        token2Balance[msg.sender] += amountToken2;\n    }\n\n    // Returns the amount of Token2 that the user will get when swapping a given amount of Token1 for Token2\n    function getSwapToken2Estimate(uint256 _amountToken2)\n        public\n        view\n        activePool\n        returns (uint256 amountToken1)\n    {\n        uint256 token2After = totalToken2.add(_amountToken2);\n        uint256 token1After = K.div(token2After);\n        amountToken1 = totalToken1.sub(token1After);\n\n        // To ensure that Token1's pool is not completely depleted leading to inf:0 ratio\n        if (amountToken1 == totalToken1) amountToken1--;\n    }\n\n    // Returns the amount of Token2 that the user should swap to get _amountToken1 in return\n    function getSwapToken2EstimateGivenToken1(uint256 _amountToken1)\n        public\n        view\n        activePool\n        returns (uint256 amountToken2)\n    {\n        require(_amountToken1 < totalToken1, \"Insufficient pool balance\");\n        uint256 token1After = totalToken1.sub(_amountToken1);\n        uint256 token2After = K.div(token1After);\n        amountToken2 = token2After.sub(totalToken2);\n    }\n\n    // Swaps given amount of Token2 to Token1 using algorithmic price determination\n    function swapToken2(uint256 _amountToken2)\n        external\n        activePool\n        validAmountCheck(token2Balance, _amountToken2)\n        returns (uint256 amountToken1)\n    {\n        amountToken1 = getSwapToken2Estimate(_amountToken2);\n\n        token2Balance[msg.sender] -= _amountToken2;\n        totalToken2 += _amountToken2;\n        totalToken1 -= amountToken1;\n        token1Balance[msg.sender] += amountToken1;\n    }\n}\n",
  "sourcePath": "contracts/amm.sol",
  "type": "contract"
}